:020000040800F2
:1000000000280020B92900084129000849290008D2
:100010005129000859290008612900080000000042
:100020000000000000000000000000006929000836
:100030007529000800000000812900088D290008AA
:10004000012A0008012A0008012A0008012A0008E4
:10005000012A0008012A0008012A0008012A0008D4
:10006000012A0008012A0008012A0008012A0008C4
:10007000012A0008012A0008012A0008012A0008B4
:10008000012A0008012A0008012A0008012A0008A4
:10009000012A0008012A0008012A0008012A000894
:1000A000012A0008012A0008012A0008012A000884
:1000B00099290008012A000800000000012A000810
:1000C000012A00080000000000000000012A0008CA
:1000D00000000000012A0008012A000800000000BA
:1000E000012A0008012A0008012A00080000000077
:1000F0000000000000000000000000000000000000
:0C01000000000000000000005FF808F1A3
:1001100010B5054C237833B9044B13B10448AFF341
:1001200000800123237010BD740000200000000037
:100130003041000808B5034B1BB103490348AFF336
:10014000008008BD00000000780000203041000859
:1001500081F0004102E000BF83F0004330B54FEA78
:1001600041044FEA430594EA050F08BF90EA020FE5
:100170001FBF54EA000C55EA020C7FEA645C7FEA78
:10018000655C00F0E2804FEA5454D4EB5555B8BF9B
:100190006D420CDD2C4480EA020281EA030382EA0C
:1001A000000083EA010180EA020281EA0303362D9E
:1001B00088BF30BD11F0004F4FEA01314FF4801C71
:1001C0004CEA113102D0404261EB410113F0004F83
:1001D0004FEA03334CEA133302D0524263EB43033A
:1001E00094EA050F00F0A780A4F10104D5F1200ED8
:1001F0000DDB02FA0EFC22FA05F2801841F1000133
:1002000003FA0EF2801843FA05F359410EE0A5F106
:1002100020050EF1200E012A03FA0EFC28BF4CF037
:10022000020C43FA05F3C01851EBE37101F00045ED
:1002300007D54FF0000EDCF1000C7EEB00006EEBFA
:100240000101B1F5801F1BD3B1F5001F0CD3490884
:100250005FEA30004FEA3C0C04F101044FEA4452DB
:1002600012F5800F80F09A80BCF1004F08BF5FEA62
:10027000500C50F1000041EB045141EA050130BD42
:100280005FEA4C0C404141EB0101013C28BFB1F554
:10029000801FE9D291F0000F04BF01460020B1FA9F
:1002A00081F308BF2033A3F10B03B3F120020CDA72
:1002B0000C3208DD02F1140CC2F10C0201FA0CF050
:1002C00021FA02F10CE002F11402D8BFC2F1200CB5
:1002D00001FA02F120FA0CFCDCBF41EA0C0190406B
:1002E000E41AA2BF01EB0451294330BD6FEA0404B4
:1002F0001F3C1CDA0C340EDC04F11404C4F120029F
:1003000020FA04F001FA02F340EA030021FA04F3B0
:1003100045EA030130BDC4F10C04C4F1200220FA07
:1003200002F001FA04F340EA0300294630BD21FA45
:1003300004F0294630BD94F0000F83F4801306BF0B
:1003400081F480110134013D4EE77FEA645C18BFFF
:100350007FEA655C29D094EA050F08BF90EA020F96
:1003600005D054EA000C04BF1946104630BD91EA8E
:10037000030F1EBF0021002030BD5FEA545C05D191
:100380004000494128BF41F0004130BD14F58004D0
:100390003CBF01F5801130BD01F0004545F0FE4144
:1003A00041F470014FF0000030BD7FEA645C1ABF79
:1003B000194610467FEA655C1CBF0B46024650EAB0
:1003C000013406BF52EA033591EA030F41F40021DC
:1003D00030BD00BF90F0000F04BF0021704730B562
:1003E0004FF4806404F132044FF000054FF0000137
:1003F00050E700BF90F0000F04BF0021704730B5F8
:100400004FF4806404F1320410F0004548BF4042CC
:100410004FF000013EE700BF42004FEAE2014FEA21
:1004200031014FEA02701FBF12F07F4393F07F4FFC
:1004300081F06051704732F07F4208BF704793F0FF
:100440007F4F04BF41F40021704730B54FF4607412
:1004500001F0004521F000411CE700BF50EA010215
:1004600008BF704730B54FF000050AE050EA0102BE
:1004700008BF704730B511F0004502D5404261EB2E
:1004800041014FF4806404F132045FEA915C3FF46F
:10049000D8AE4FF003025FEADC0C18BF03325FEA0C
:1004A000DC0C18BF033202EBDC02C2F1200300FABD
:1004B00003FC20FA02F001FA03FE40EA0E0021FAE2
:1004C00002F11444BDE600BF70B54FF0FF0C4CF4D0
:1004D000E06C1CEA11541DBF1CEA135594EA0C0F82
:1004E00095EA0C0F00F0DEF82C4481EA030621EABD
:1004F0004C5123EA4C5350EA013518BF52EA0335F8
:1005000041F4801143F4801338D0A0FB02CE4FF0A9
:100510000005E1FB02E506F00042E0FB03E54FF0D9
:100520000006E1FB03569CF0000F18BF4EF0010ED1
:10053000A4F1FF04B6F5007F64F5407404D25FEACD
:100540004E0E6D4146EB060642EAC62141EA555180
:100550004FEAC52040EA5E504FEACE2EB4F1FD0CC2
:1005600088BFBCF5E06F1ED8BEF1004F08BF5FEA40
:10057000500E50F1000041EB045170BD06F00046F2
:1005800046EA010140EA020081EA0301B4EB5C049F
:10059000C2BFD4EB0C0541EA045170BD41F4801197
:1005A0004FF0000E013C00F3AB8014F1360FDEBFBC
:1005B000002001F0004170BDC4F10004203C35DA98
:1005C0000C341BDC04F11404C4F1200500FA05F31B
:1005D00020FA04F001FA05F240EA020001F00042BC
:1005E00021F0004110EBD37021FA04F642EB060132
:1005F0005EEA430E08BF20EAD37070BDC4F10C045C
:10060000C4F1200500FA04F320FA05F001FA04F21F
:1006100040EA020001F0004110EBD37041F100010B
:100620005EEA430E08BF20EAD37070BDC4F1200516
:1006300000FA05F24EEA020E20FA04F301FA05F27E
:1006400043EA020321FA04F001F0004121FA04F226
:1006500020EA020000EBD3705EEA430E08BF20EAF6
:10066000D37070BD94F0000F0FD101F00046400030
:1006700041EB010111F4801F08BF013CF7D041EAB2
:10068000060195F0000F18BF704703F000465200B6
:1006900043EB030313F4801F08BF013DF7D043EA87
:1006A0000603704794EA0C0F0CEA135518BF95EA3D
:1006B0000C0F0CD050EA410618BF52EA4306D1D1C4
:1006C00081EA030101F000414FF0000070BD50EAE3
:1006D000410606BF1046194652EA430619D094EA6D
:1006E0000C0F02D150EA013613D195EA0C0F05D157
:1006F00052EA03361CBF104619460AD181EA0301AB
:1007000001F0004141F0FE4141F470014FF0000062
:1007100070BD41F0FE4141F4780170BD70B54FF0FD
:10072000FF0C4CF4E06C1CEA11541DBF1CEA13557D
:1007300094EA0C0F95EA0C0F00F0A7F8A4EB05045F
:1007400081EA030E52EA03354FEA013100F0888056
:100750004FEA03334FF0805545EA131343EA12631F
:100760004FEA022245EA111545EA10654FEA0026D4
:100770000EF000419D4208BF964244F1FD0404F58D
:10078000407402D25B084FEA3202B61A65EB0305E9
:100790005B084FEA32024FF480104FF4002CB6EBA6
:1007A000020E75EB030E22BFB61A754640EA0C0026
:1007B0005B084FEA3202B6EB020E75EB030E22BF66
:1007C000B61A754640EA5C005B084FEA3202B6EBA7
:1007D000020E75EB030E22BFB61A754640EA9C0066
:1007E0005B084FEA3202B6EB020E75EB030E22BF36
:1007F000B61A754640EADC0055EA060E18D04FEAF4
:10080000051545EA16754FEA06164FEAC30343EA93
:1008100052734FEAC2025FEA1C1CC0D111F4801F60
:100820000BD141EA00014FF000004FF0004CB6E759
:1008300011F4801F04BF01430020B4F1FD0C88BFF8
:10084000BCF5E06F3FF6AFAEB5EB030C04BFB6EB03
:10085000020C5FEA500C50F1000041EB045170BDF6
:100860000EF0004E4EEA113114EB5C04C2BFD4EB23
:100870000C0541EA045170BD41F480114FF0000EA7
:10088000013C90E645EA060E8DE60CEA135594EA23
:100890000C0F08BF95EA0C0F3FF43BAF94EA0C0F26
:1008A0000AD150EA01347FF434AF95EA0C0F7FF49B
:1008B00025AF104619462CE795EA0C0F06D152EAEF
:1008C00003353FF4FDAE1046194622E750EA4106D3
:1008D00018BF52EA43067FF4C5AE50EA41047FF4E4
:1008E0000DAF52EA43057FF4EBAE12E74FF0FF3C49
:1008F00006E000BF4FF0010C02E000BF4FF0010C1A
:100900004DF804CD4FEA410C7FEA6C5C4FEA430C92
:1009100018BF7FEA6C5C1BD001B050EA410C0CBFE1
:1009200052EA430C91EA030F02BF90EA020F002043
:10093000704710F1000F91EA030F58BF994208BFAA
:1009400090422CBFD8176FEAE37040F00100704767
:100950004FEA410C7FEA6C5C02D150EA013C07D1BE
:100960004FEA430C7FEA6C5CD6D152EA033CD3D009
:100970005DF8040B704700BF8446104662468C4603
:100980001946634600E000BF01B5FFF7B7FF002836
:1009900048BF10F1000F01BD4DF808EDFFF7F4FF5F
:1009A0000CBF012000205DF808FB00BF4DF808EDEA
:1009B000FFF7EAFF34BF012000205DF808FB00BF0D
:1009C0004DF808EDFFF7E0FF94BF012000205DF82F
:1009D00008FB00BF4DF808EDFFF7CEFF94BF0120E4
:1009E00000205DF808FB00BF4DF808EDFFF7C4FFDD
:1009F00034BF012000205DF808FB00BF4FEA410230
:100A000012F5001215D211D56FF47873B3EB625260
:100A100012D94FEAC12343F0004343EA505311F087
:100A2000004F23FA02F018BF404270474FF0000019
:100A3000704750EA013005D111F0004008BF6FF057
:100A4000004070474FF00000704700BF80B582B093
:100A500000AF78607B68002BC0F29C817B68092B1B
:100A600000F398817B68092B00F2968101A252F86D
:100A700023F000BF9D0A0008E90A0008350B0008B2
:100A8000810B0008CD0B0008190C0008650C00084C
:100A9000B10C0008FD0C0008490D000800220121DE
:100AA000BF4802F0B2FA00220221BD4802F0ADFABE
:100AB00000220421BA4802F0A8FA00220821B8480E
:100AC00002F0A3FA00221021B54802F09EFA00229B
:100AD0004FF48071B24802F098FA01224FF400718D
:100AE000AF4802F092FA58E101220121AC4802F02D
:100AF0008CFA00220221AA4802F087FA002204217F
:100B0000A74802F082FA01220821A54802F07DFAE6
:100B100001221021A24802F078FA01224FF48071DC
:100B20009F4802F072FA01224FF400719C4802F0D3
:100B30006CFA32E100220121994802F066FA0022A3
:100B40000221974802F061FA01220421944802F040
:100B50005CFA00220821924802F057FA0022102184
:100B60008F4802F052FA01224FF480718C4802F053
:100B70004CFA00224FF40071894802F046FA0CE169
:100B800000220121864802F040FA00220221844816
:100B900002F03BFA00220421814802F036FA0022DA
:100BA00008217F4802F031FA012210217C4802F02E
:100BB0002CFA01224FF48071794802F026FA0022C3
:100BC0004FF40071764802F020FAE6E0012201219C
:100BD000734802F01AFA00220221714802F015FA55
:100BE000002204216E4802F010FA012208216C480C
:100BF00002F00BFA01221021694802F006FA0022E5
:100C00004FF48071664802F000FA00224FF4007140
:100C1000634802F0FAF9C0E000220121604802F0C6
:100C2000F4F9012202215E4802F0EFF900220421CA
:100C30005B4802F0EAF900220821594802F0E5F980
:100C400001221021564802F0E0F900224FF4807191
:100C5000534802F0DAF900224FF40071504802F0D4
:100C6000D4F99AE0002201214D4802F0CEF9012288
:100C700002214B4802F0C9F900220421484802F041
:100C8000C4F900220821464802F0BFF900221021D1
:100C9000434802F0BAF900224FF48071404802F054
:100CA000B4F900224FF400713D4802F0AEF974E04F
:100CB000002201213A4802F0A8F900220221384816
:100CC00002F0A3F900220421354802F09EF9012226
:100CD0000821334802F099F901221021304802F02E
:100CE00094F901224FF480712D4802F08EF901220F
:100CF0004FF400712A4802F088F94EE000220121E9
:100D0000274802F082F900220221254802F07DF9ED
:100D100000220421224802F078F90022082120480C
:100D200002F073F9002210211D4802F06EF9002232
:100D30004FF480711A4802F068F900224FF40071F4
:100D4000174802F062F928E000220121144802F05D
:100D50005CF900220221124802F057F90022042116
:100D60000F4802F052F9002208210D4802F04DF917
:100D7000012210210A4802F048F900224FF4807144
:100D8000074802F042F900224FF40071044802F0D3
:100D90003CF902E000BF00E000BF0837BD4680BD5F
:100DA0000008014080B582B000AF78607B68002BFE
:100DB000C0F2B0817B68092B00F3AC817B68092B02
:100DC00000F2AA8101A252F823F000BFF50D00083D
:100DD000450E0008950E0008E50E0008350F0008C6
:100DE000850F0008D50F00082510000875100008B1
:100DF000C510000800222021C94802F006F900228F
:100E00004021C74802F001F900228021C44802F0C5
:100E1000FCF800224FF48071C14802F0F6F800227D
:100E20004FF40071BE4802F0F0F800224FF4005178
:100E3000BB4802F0EAF801224FF48041B84802F0C2
:100E4000E4F86AE101222021B54802F0DEF8002230
:100E50004021B34802F0D9F800228021B04802F0C6
:100E6000D4F801224FF48071AD4802F0CEF801228F
:100E70004FF40071AA4802F0C8F801224FF4005163
:100E8000A74802F0C2F801224FF48041A44802F0C2
:100E9000BCF842E100222021A14802F0B6F800226D
:100EA00040219F4802F0B1F8012280219C4802F0C5
:100EB000ACF800224FF48071994802F0A6F80022A5
:100EC0004FF40071964802F0A0F801224FF400514F
:100ED000934802F09AF800224FF48041904802F0C3
:100EE00094F81AE1002220218D4802F08EF80022A9
:100EF00040218B4802F089F800228021884802F0C6
:100F000084F800224FF48071854802F07EF80122B7
:100F10004FF40071824802F078F801224FF400513A
:100F20007F4802F072F800224FF480417C4802F0C2
:100F30006CF8F2E001222021794802F066F80022E4
:100F40004021774802F061F800228021744802F0C5
:100F50005CF801224FF48071714802F056F80122CA
:100F60004FF400716E4802F050F800224FF4005127
:100F70006B4802F04AF800224FF48041684802F0C2
:100F800044F8CAE000222021654802F03EF8012220
:100F90004021634802F039F800228021604802F0C5
:100FA00034F800224FF480715D4802F02EF80122DF
:100FB0004FF400715A4802F028F800224FF4005113
:100FC000574802F022F800224FF48041544802F0C2
:100FD0001CF8A2E000222021514802F016F801225C
:100FE00040214F4802F011F8002280214C4802F0C5
:100FF0000CF800224FF48071494802F006F80022F4
:101000004FF40071464802F000F800224FF40051FE
:10101000434801F0FAFF00224FF48041404801F0BC
:10102000F4FF7AE0002220213D4801F0EEFF00228B
:1010300040213B4801F0E9FF00228021384801F0BF
:10104000E4FF01224FF48071354801F0DEFF0122F8
:101050004FF40071324801F0D8FF01224FF40051E3
:101060002F4801F0D2FF01224FF480412C4801F0BB
:10107000CCFF52E000222021294801F0C6FF0022C7
:101080004021274801F0C1FF00228021244801F0BF
:10109000BCFF00224FF48071214801F0B6FF00220E
:1010A0004FF400711E4801F0B0FF00224FF40051D0
:1010B0001B4801F0AAFF00224FF48041184801F0BC
:1010C000A4FF2AE000222021154801F09EFF002203
:1010D0004021134801F099FF00228021104801F0BF
:1010E00094FF00224FF480710D4801F08EFF012221
:1010F0004FF400710A4801F088FF00224FF40051BC
:10110000074801F082FF00224FF48041044801F0BB
:101110007CFF02E000BF00E000BF0837BD4680BD95
:10112000000C014080B584B000AF78607B68002B74
:1011300062DB7B68632B5FDC314B1B68002B03D1C8
:10114000304B1B68012B58D12D4B00221A606520B3
:1011500001F008FB7B68092B0FDC00224FF4806153
:10116000294801F052FF00224FF40061264801F0A7
:101170004CFF7868FFF76AFC3FE0244B1B68002BAC
:101180001AD17B68224A82FB03129210DB17D31A12
:10119000BB6000224FF480611B4801F036FF012242
:1011A0004FF40061184801F030FFB868FFF74EFCBB
:1011B000164B01221A6020E07A68154B83FB02135C
:1011C0009910D317C91A0B469B000B445B00D31A26
:1011D000FB6000224FF400610B4801F016FF012272
:1011E0004FF48061084801F010FFF868FFF72EFC0B
:1011F000064B00221A6000E000BF1037BD4680BDDC
:101200000000002020020020000801409000002083
:101210006766666680B584B000AF78607B68002B37
:1012200062DB7B68632B5FDC314B1B68002B03D1D7
:10123000304B1B68012B58D12D4B00221A606420C3
:1012400001F076FA7B68092B0FDC00224FF4805105
:10125000294801F0DAFE00224FF40041264801F04F
:10126000D4FE7868FFF79EFD3FE0244B1B68002BFF
:101270001AD17B68224A82FB03129210DB17D31A21
:10128000BB6000224FF480511B4801F0BEFE0122DA
:101290004FF40041184801F0B8FEB868FFF782FD2E
:1012A000164B01221A6020E07A68154B83FB02136B
:1012B0009910D317C91A0B469B000B445B00D31A35
:1012C000FB6000224FF400410B4801F09EFE01221A
:1012D0004FF48051084801F098FEF868FFF762FD6E
:1012E000064B00221A6000E000BF1037BD4680BDEB
:1012F000040000201C02002000080140940000208F
:101300006766666680B400AF064B1B68012B04D18C
:10131000044B00221A60012300E000231846BD465A
:1013200080BC70479C00002080B400AF064B1B6857
:10133000012B04D1044B00221A60012300E000239A
:101340001846BD4680BC7047A400002080B400AFA2
:10135000064B1B68012B04D1044B00221A600123A9
:1013600000E000231846BD4680BC7047AC0000205A
:1013700080B500AF694B1B68694A1360694B1B68F5
:10138000664A13602021684801F028FE03461A4689
:10139000644B1A60614B1A68614B1B689A422FD1EB
:1013A0005E4B1A685F4B1B689A4229D15D4B1A68E5
:1013B0005E4B1B689A420FD05A4B1B685B4A136006
:1013C0005A4B1B68002B1BD1594B4FF4FA721A6011
:1013D000584B01221A6013E0554B1B68013B544ADD
:1013E0001360534B1B68002B0AD1514B4FF4FA7218
:1013F0001A604E4B1B68002B02D14F4B01221A6022
:101400004E4B1B684E4A13604E4B1B684B4A136091
:101410004021454801F0E2FD03461A46494B1A6057
:10142000464B1A68464B1B689A422FD1434B1A68A9
:10143000444B1B689A4229D1424B1A68424B1B68A5
:101440009A420FD03F4B1B683F4A13603E4B1B68CC
:10145000002B1BD13D4B4FF4FA721A603C4B01221A
:101460001A6013E0394B1B68013B384A1360374B55
:101470001B68002B0AD1354B4FF4FA721A60324BBD
:101480001B68002B02D1334B01221A60324B1B68C0
:10149000324A1360324B1B682F4A13608021224866
:1014A00001F09CFD03461A462D4B1A602A4B1A6820
:1014B0002A4B1B689A422FD1274B1A68284B1B686E
:1014C0009A4229D1264B1A68264B1B689A420FD0A4
:1014D000234B1B68234A1360224B1B68002B1BD134
:1014E000214B4FF4FA721A60204B01221A6013E06C
:1014F0001D4B1B68013B1C4A13601B4B1B68002BD8
:101500000AD1194B4FF4FA721A60164B1B68002B64
:1015100002D1174B01221A6000BF80BD0C000020D1
:1015200008000020100000200008014014000020E6
:10153000180000209C0000209800002020000020BF
:101540001C00002024000020280000202C00002087
:10155000A4000020A0000020340000203000002063
:10156000380000203C00002040000020AC0000209B
:10157000A800002080B400AF064B1B68012B04DDDF
:10158000044B1B68013B034A136000BFBD4680BC8F
:10159000704700BFB000002080B500AF0A4B0222A8
:1015A0001A600A4B1B680A4A1360094B1B681846ED
:1015B000FFF7B8FD4FF47A724FF47A71054800F0E6
:1015C000B3FF00BF80BD00BFB8000020580000205E
:1015D000B00000207515000880B500AF0A4B03224B
:1015E0001A600A4B1B680A4A1360094B1B681846AD
:1015F000FFF798FD4FF47A724FF47A71054800F0C6
:1016000093FF00BF80BD00BFB80000205C00002039
:10161000B00000207515000880B500AF0A4B01220C
:101620001A600A4B1B680A4A1360094B1B6818466C
:10163000FFF778FD4FF47A724FF47A71054800F0A5
:1016400073FF00BF80BD00BFB80000205400002021
:10165000B00000207515000880B400AF064B1B6871
:10166000012B04DD044B1B68013B034A136000BFE0
:10167000BD4680BC704700BFB400002080B500AFFD
:101680000A4B06221A600A4B1B680A4A1360094B70
:101690001B681846FFF7BEFD4FF47A724FF47A715B
:1016A000054800F041FF00BF80BD00BF5000002092
:1016B00058000020B40000205916000880B500AF83
:1016C0000A4B07221A600A4B1B680A4A1360094B2F
:1016D0001B681846FFF79EFD4FF47A724FF47A713B
:1016E000054800F021FF00BF80BD00BF5000002072
:1016F0005C000020B40000205916000880B500AF3F
:101700000A4B05221A600A4B1B680A4A1360094BF0
:101710001B681846FFF77EFD4FF47A724FF47A711A
:10172000054800F001FF00BF80BD00BF5000002051
:1017300054000020B40000205916000880B500AF06
:101740007C4B1B68032B00F2EC8001A252F823F0C3
:1017500061170008DF1700084B180008B7180008C9
:1017600000220121744801F050FC00224FF4006176
:10177000714801F04AFC00224FF480516E4801F09C
:1017800044FC00224FF480616C4801F03EFC0022D2
:101790004FF40061694801F038FC00224FF4805199
:1017A000664801F032FC00224FF40041634801F02A
:1017B0002CFC604B01221A60614B1B68614A13606C
:1017C000604B1B681846FFF7ADFC00F057FD4FF467
:1017D0007A724FF47A715C4800F0A6FEA8E001220C
:1017E0000121554801F011FC00224FF400615248DC
:1017F00001F00BFC00224FF480514F4801F005FC32
:10180000504B1B681846FFF78DFCFFF77BFD034626
:10181000012B05D1474B0A221A604C4B0A221A6051
:101820004B4800F07BFD034683F00103DBB2002B45
:1018300079D0434B1B684FF47A7202FB03F300220A
:101840001946434800F070FE6DE0002201213A483D
:1018500001F0DBFB01224FF40061374801F0D5FBBA
:1018600000224FF48051344801F0CFFB354B1B6808
:101870001846FFF757FCFFF745FD0346012B05D13E
:101880002C4B0A221A60314B0A221A60314800F0B0
:1018900045FD034683F00103DBB2002B45D02E4B00
:1018A0001B684FF47A7202FB03F3002219462948A1
:1018B00000F03AFE39E0002201211F4801F0A5FBAB
:1018C00000224FF400611C4801F09FFB01224FF4FD
:1018D0008051194801F099FB1A4B1B681846FFF715
:1018E00021FCFFF70FFD0346012B05D1114B0A2206
:1018F0001A60164B0A221A60184800F00FFD0346C2
:1019000083F00103DBB2002B11D0154B1B684FF4A1
:101910007A7202FB03F300221946104800F004FE1D
:1019200005E000BF04E000BF02E000BF00E000BF30
:1019300000BF80BDB8000020000C0140000801403D
:1019400054000020B0000020751500085000002051
:1019500099150008D915000858000020191600082C
:101960005C00002080B500AF5C4B1B68043B032B80
:1019700000F2AA8001A252F823F000BF8D190008DE
:10198000771A0008D3190008251A0008002202213E
:10199000534801F03AFB00220821514801F035FB81
:1019A000002210214E4801F030FB4C4B06221A60F9
:1019B0004C4B1B684C4A13604B4B1B681846FFF797
:1019C00029FC4FF47A724FF47A71484800F0ACFD6C
:1019D00081E001220221424801F017FB0022082188
:1019E0003F4801F012FB002210213D4801F00DFBA1
:1019F0003D4B1B681846FFF70DFC3D4800F08EFC80
:101A0000034683F00103DBB2002B5FD0354B1B682C
:101A10004FF47A7202FB03F300221946344800F0B7
:101A200083FD53E0002202212D4801F0EEFA01224D
:101A300008212B4801F0E9FA00221021284801F082
:101A4000E4FA294B1B681846FFF7E4FB294800F02D
:101A500065FC034683F00103DBB2002B38D0264B34
:101A60001B684FF47A7202FB03F3002219462148E7
:101A700000F05AFD2CE000220221194801F0C5FABD
:101A800000220821164801F0C0FA01221021144852
:101A900001F0BBFA144B1B681846FFF7BBFB174855
:101AA00000F03CFC034683F00103DBB2002B11D0B5
:101AB000134B1B684FF47A7202FB03F300221946A2
:101AC0000E4800F031FD05E000BF04E000BF02E079
:101AD00000BF00E000BF00BF80BD00BF500000207D
:101AE000000C014058000020B400002059160008E6
:101AF000BD160008FD1600085C0000207D160008D9
:101B00005400002080B400AF044B00221A60044B44
:101B100004221A6000BFBD4680BC7047B800002098
:101B20005000002080B500AF01210F4801F085FA78
:101B300010210D4801F081FA002202210A4801F02B
:101B400064FA00220821084801F05FFA00224FF4ED
:101B50000061054801F059FA00224FF48051024813
:101B600001F053FA00BF80BD000C014080B500AF0A
:101B700008210F4801F061FA4FF480510C4801F040
:101B80005CFA002201210A4801F03FFA00220221FA
:101B9000074801F03AFA00221021054801F035FA11
:101BA00000224FF40061024801F02FFA00BF80BD0F
:101BB000000C014080B500AF4FF400610E4801F009
:101BC0003CFA02210C4801F038FA002201210A48AF
:101BD00001F01BFA00220821074801F016FA002242
:101BE0001021054801F011FA00224FF480510248FB
:101BF00001F00BFA00BF80BD000C014080B582B03F
:101C000000AF78607B68012B22D0134A7B68136099
:101C10007868FEF7EFFB4FF000024FF08043FEF7CD
:101C20007DFD02460B461046194602F005FA0246B3
:101C30000B4610461946FEF7E1FE0346074A1360BD
:101C4000054B1A68054B1B68D31A054A136000E060
:101C500000BF0837BD4680BD54000020580000205A
:101C60005C00002080B582B000AF78607B68632B99
:101C700031D01B4A7B6813607868FEF7BBFB4FF0DE
:101C80000002184BFEF720FC02460B461046194690
:101C90004FF00002144BFEF741FD02460B46104682
:101CA000194602F0C9F902460B4610461946FEF7DE
:101CB000A5FE03460D4A13600C4B1B68632B02DD27
:101CC0000A4B63221A60094B1A68054B1B68D31A2A
:101CD000074A136000E000BF0837BD4680BD00BF63
:101CE000580000200000144000000840540000206C
:101CF0005C00002080B582B000AF78607B68632B09
:101D000032D01B4A7B6813607868FEF773FB4FF094
:101D10000002184BFEF7D8FB02460B461046194648
:101D20004FF000024FF08043FEF7F8FC02460B46EE
:101D30001046194602F080F902460B461046194635
:101D4000FEF75CFE03460C4A13600B4B1B68632BCB
:101D500002DD094B63221A60074B1A68044B1B68AB
:101D6000D31A064A136000E000BF0837BD4680BDA5
:101D70005C000020000014405400002058000020A7
:101D800080B500AF9F4B1B680A3B042B00F22F81EC
:101D900001A252F823F000BFAD1D0008351E000857
:101DA000691E0008F51E00087F1F0008002201219F
:101DB000954801F02AF900224FF40061924801F0A1
:101DC00024F900224FF480518F4801F01EF90022BF
:101DD00002218D4801F019F9002208218A4801F0FA
:101DE00014F900221021884801F00FF901224FF464
:101DF0008051864801F009F901224FF400418348DF
:101E000001F003F900224FF48061804801F0FDF8F1
:101E100000224FF400617D4801F0F7F800F02EFA3F
:101E2000784B0B221A60002240F6B831784800F057
:101E30007BFBE5E00120FEF709FEFFF763FA0346AE
:101E4000012B40F0D6806F4B0C221A6000F016FA7E
:101E5000002242F210716E4800F066FBFA22002167
:101E60006C4800F061FBC4E00220FEF7EFFDFFF7D5
:101E700049FA0346012B0FD1624B0D221A6000F084
:101E8000FDF9002242F21071614800F04DFBFA2288
:101E90000021614800F048FBFFF746FA0346012B9A
:101EA00011D1002242F21071594800F03DFB5B4B0A
:101EB0001B680133594A1360584B1B68632B02DDC2
:101EC000564B01221A60554B1B681846FFF7A2F9C2
:101ED000FFF73CFA0346012B40F08D804F4B1B6807
:101EE0001846FFF78BFE474B00221A604C4B04222A
:101EF0001A6080E00320FEF7A9FDFFF703FA03460E
:101F0000012B0FD13F4B0E221A6000F0B7F90022CF
:101F100042F210713E4800F007FBFA2200214148CE
:101F200000F002FBFFF700FA0346012B11D100225B
:101F300042F21071364800F0F7FA3B4B1B68013350
:101F4000394A1360384B1B68632B02DD364B012284
:101F50001A60354B1B681846FFF75CF9FFF7F6F976
:101F60000346012B49D1304B1B681846FFF7C2FED0
:101F7000244B00221A602A4B04221A603DE0042000
:101F8000FEF764FDFFF7BEF90346012B02D11D4B9E
:101F90000A221A60FFF7C8F90346012B11D100226B
:101FA00042F210711A4800F0BFFA204B1B6801334F
:101FB0001E4A13601D4B1B68632B02DD1B4B012265
:101FC0001A601A4B1B681846FFF724F9FFF7BEF991
:101FD0000346012B13D1154B1B681846FFF742FE31
:101FE000084B00221A600E4B04221A6007E000BF63
:101FF00006E000BF04E000BF02E000BF00E000BF59
:1020000000BF80BDB8000020000C01400008014066
:10201000051B0008251B00086D1B0008440000205C
:1020200050000020B51B00084C0000204800002094
:1020300080B500AF00F0E6FC00F016F800F09CF868
:1020400000F04EF8074801F03FFC00F017F900F0EF
:102050000BFAFFF773FBFFF785FCFFF791FE00BF5C
:10206000F5E700BFBC00002080B590B000AF07F1DD
:10207000180328220021184601F0B2FF3B1D002260
:102080001A605A609A60DA601A610223BB61012308
:10209000BB621023FB6200237B6307F11803184621
:1020A00000F0E4FF0346002B01D000F0E1F80F231D
:1020B0007B600023BB600023FB6000233B610023A7
:1020C0007B613B1D0021184601F052FA0346002BAC
:1020D00001D000F0CDF800BF4037BD4680BD000004
:1020E00080B586B000AF07F1080300221A605A607D
:1020F0009A60DA603B4600221A605A601D4B4FF02E
:1021000080421A601B4B41F63F725A60194B002205
:102110009A60184B0922DA60164B00221A61154B9F
:1021200000229A61134801F07FFB0346002B01D087
:1021300000F09EF84FF48053BB6007F10803194686
:102140000C4801F0FDFC0346002B01D000F090F894
:1021500000233B6000237B603B461946054801F0A5
:10216000D5FE0346002B01D000F082F800BF1837DF
:10217000BD4680BDBC00002080B588B000AF07F12F
:10218000100300221A605A609A60DA602E4B9B6935
:102190002D4A43F0200393612B4B9B6903F02003EE
:1021A000FB60FB68284B9B69274A43F0040393615B
:1021B000254B9B6903F00403BB60BB68224B9B6902
:1021C000214A43F0080393611F4B9B6903F0080306
:1021D0007B607B68002249F61F711C4800F015FFE8
:1021E000002247F6FB311A4800F00FFF49F61F7333
:1021F0003B6101237B610023BB610223FB6107F18B
:1022000010031946114800F06DFDE0233B610023E7
:102210007B610123BB6107F1100319460B4800F0F5
:1022200061FD47F6FB333B6101237B610023BB610A
:102230000223FB6107F110031946054800F052FD27
:1022400000BF2037BD4680BD00100240000801409D
:10225000000C014080B582B000AF7860FFF788F8CD
:1022600000F09AFA00F088F800BF0837BD4680BD3C
:1022700080B400AF72B600BF00BFFDE780B483B08A
:1022800000AF0023FB713DE0FA79234913465B0060
:102290001344DB000B4400221A60FA791E491346EE
:1022A0005B001344DB000B44043300221A60FA790C
:1022B000194913465B001344DB000B44083300222A
:1022C0001A60FA79144913465B001344DB000B448F
:1022D0000C3300221A70FA790F4913465B0013443D
:1022E000DB000B44103300221A60FA790A491346C6
:1022F0005B001344DB000B44143300221A70FB799B
:102300000133FB71FB79092BBED900BF00BF0C372D
:10231000BD4680BC704700BF0401002080B485B07A
:1023200000AF78600023FB601AE01249FA68134698
:102330005B001344DB000B441B687A689A420CD1A3
:102340000C49FA6813465B001344DB000B4414335A
:102350001B78002B01D0012306E0FB680133FB60F2
:10236000FB68092BE1DD002318461437BD4680BC0D
:10237000704700BF0401002080B483B000AF002389
:10238000FB7166E0FA79374913465B001344DB00C2
:102390000B441B68002B59D0FA79324913465B0075
:1023A0001344DB000B4414331B78002B4ED0FA7916
:1023B0002C4913465B001344DB000B4404331B68B9
:1023C000002B31D1FA79274913465B001344DB0017
:1023D0000B440C331B780133D8B2224913465B00FF
:1023E0001344DB000B440C3302461A70FA791D4982
:1023F00013465B001344DB000B4408331B68002BBF
:1024000024D0F979FA7917480B465B000B44DB00BE
:10241000034408331968134813465B001344DB0078
:1024200003440433196011E0FA790E4913465B0046
:102430001344DB000B4404331B68591E0948134640
:102440005B001344DB00034404331960FB79013360
:10245000FB71FB79092B95D900BF00BF0C37BD4636
:1024600080BC70470401002080B582B000AF00231B
:10247000FB714EE0FA792B4913465B001344DB00F5
:102480000B440C331B78002B40D0FA7925491346B6
:102490005B001344DB000B441B68002B36D0FA7939
:1024A000204913465B001344DB000B4414331B78B4
:1024B000002B2BD0FA791B4913465B001344DB0039
:1024C0000B440C331B78013BD8B2164913465B0012
:1024D0001344DB000B440C3302461A70FA7911499D
:1024E00013465B001344DB000B441B689847FA79E2
:1024F0000C4913465B001344DB000B4408331B6894
:10250000002B03D1FB79184600F0B6F8FB790133B4
:10251000FB71FB79092BADD900BF00BF0837BD4661
:1025200080BD00BF0401002080B487B000AFF86018
:10253000B9607A600023FB758FE0FA7D4C49134641
:102540005B001344DB000B441B68FA689A4232D1EB
:10255000FA7D474913465B001344DB000B441433F8
:102560001B78002B27D0434B1B68FA7DB968B1FB61
:10257000F3F13F4813465B001344DB00034404338C
:1025800019603C4B1B68FA7D7968B1FBF3F1384860
:1025900013465B001344DB00034408331960FA7DE3
:1025A000334913465B001344DB000B440C33002219
:1025B0001A70012356E0FA7D2D4913465B0013443F
:1025C000DB000B441B68002B44D1FA7D28491346DD
:1025D0005B001344DB000B44FA681A60254B1B6850
:1025E000FA7DB968B1FBF3F1214813465B0013444F
:1025F000DB000344043319601E4B1B68FA7D7968C5
:10260000B1FBF3F11A4813465B001344DB000344AB
:1026100008331960FA7D164913465B001344DB004A
:102620000B440C3300221A70FA7DF97D10481346D2
:102630005B001344DB00034410331960FA7D0C493E
:1026400013465B001344DB000B44143301221A7061
:10265000012307E0FB7D0133FB75FB7D092B7FF632
:102660006CAF002318461C37BD4680BC704700BFC6
:10267000040100206000002080B485B000AF7860C5
:102680000023FB734AE0FA7B284913465B0013449E
:10269000DB000B4410331B687A689A423BD1FA7B0B
:1026A000224913465B001344DB000B4400221A60EE
:1026B000FA7B1E4913465B001344DB000B440433D2
:1026C00000221A60FA7B194913465B001344DB00B1
:1026D0000B44083300221A60FA7B144913465B004E
:1026E0001344DB000B440C3300221A70FA7B0F49B1
:1026F00013465B001344DB000B44103300221A60C6
:10270000FA7B0A4913465B001344DB000B44143385
:1027100000221A7005E0FB7B0133FB73FB7B092B66
:10272000B1D91437BD4680BC704700BF04010020FA
:1027300080B483B000AF7860074B1B687A6892FB67
:10274000F3F3064A1360064B00221A6000BF0C37F1
:10275000BD4680BC704700BF64000020040200201A
:102760001C02002080B483B000AF7860074B1B6868
:102770007A6892FBF3F3064A1360064B00221A6054
:1027800000BF0C37BD4680BC704700BF640000200E
:10279000080200202002002080B400AF314B1B68EB
:1027A000002B0BDD2F4B1B68013B2E4A13602D4B7A
:1027B0001B68002B02D12C4B01221A602B4B1B688B
:1027C000002B0BDD294B1B68013B284A1360274B6C
:1027D0001B68002B02D1264B01221A60254B1B6877
:1027E000002B0BDD234B1B68013B224A1360214B5E
:1027F0001B68002B02D1204B01221A601F4B1B6863
:10280000002B0BDD1D4B1B68013B1C4A13601B4B4F
:102810001B68002B02D11A4B01221A60194B1B684E
:10282000002B0BDD174B1B68013B164A1360154B41
:102830001B68002B02D1144B01221A60134B1B683A
:10284000002B0BDD114B1B68013B104A13600F4B33
:102850001B68002B02D10E4B01221A6000BFBD463F
:1028600080BC7047F40100200C020020F801002019
:1028700010020020FC0100201402002000020020B1
:1028800018020020040200201C0200200802002080
:102890002002002080B485B000AF154B9B69144A1C
:1028A00043F001039361124B9B6903F00103BB608A
:1028B000BB680F4BDB690E4A43F08053D3610C4B6E
:1028C000DB6903F080537B607B680A4B5B68FB60CD
:1028D000FB6823F0E063FB60FB6843F00073FB6080
:1028E000044AFB68536000BF1437BD4680BC704784
:1028F000001002400000014080B584B000AF786055
:102900007B681B68B3F1804F13D10C4BDB690B4A1A
:1029100043F00103D361094BDB6903F00103FB6062
:10292000FB68002200211C2000F0A5F91C2000F00B
:10293000BEF900BF1037BD4680BD00BF0010024089
:1029400080B400AF00BFFDE780B400AF00BFFDE77B
:1029500080B400AF00BFFDE780B400AF00BFFDE76B
:1029600080B400AF00BFFDE780B400AF00BFBD463C
:1029700080BC704780B400AF00BFBD4680BC7047CC
:1029800080B400AF00BFBD4680BC704780B500AFCB
:1029900000F07EF800BF80BD80B500AF024800F0B7
:1029A000DFFF00BF80BD00BFBC00002080B400AFCF
:1029B00000BFBD4680BC7047FFF7F8FF0B480C49CD
:1029C0000C4A002302E0D458C4500433C4188C428B
:1029D000F9D3094A094C002301E013600432A242F2
:1029E000FBD301F005FBFFF723FB7047000000203D
:1029F00074000020744100087400002028020020A8
:102A0000FEE7000080B500AF084B1B68074A43F0A3
:102A100010031360032000F023F90F2000F008F8E2
:102A2000FFF738FF0023184680BD00BF002002409A
:102A300080B582B000AF7860124B1A68124B1B78D9
:102A400019464FF47A73B3FBF1F3B2FBF3F3184674
:102A500000F03BF90346002B01D001230EE07B6818
:102A60000F2B0AD8002279684FF0FF3000F003F9ED
:102A7000064A7B681360002300E0012318460837EC
:102A8000BD4680BD68000020700000206C00002062
:102A900080B400AF054B1B781A46054B1B681344E6
:102AA000034A136000BFBD4680BC70477000002021
:102AB0002402002080B400AF024B1B681846BD46BC
:102AC00080BC70472402002080B485B000AF7860DD
:102AD0007B6803F00703FB600C4BDB68BB60BA68E4
:102AE0004FF6FF031340BB60FB681A02BB68134339
:102AF00043F0BF6343F40033BB60044ABB68D36058
:102B000000BF1437BD4680BC704700BF00ED00E039
:102B100080B400AF044BDB681B0A03F007031846C0
:102B2000BD4680BC704700BF00ED00E080B483B0BC
:102B300000AF0346FB7197F90730002B0BDBFB79E5
:102B400003F01F02064997F907305B09012000FADC
:102B500002F241F8232000BF0C37BD4680BC70470D
:102B600000E100E080B483B000AF03463960FB7140
:102B700097F90730002B0ADB3B68DAB20C4997F96A
:102B800007301201D2B20B4483F800230AE03B68FD
:102B9000DAB20849FB7903F00F03043B1201D2B209
:102BA0000B441A7600BF0C37BD4680BC704700BF8F
:102BB00000E100E000ED00E080B489B000AFF86013
:102BC000B9607A60FB6803F00703FB61FB69C3F13E
:102BD0000703042B28BF0423BB61FB690433062BC6
:102BE00002D9FB69033B00E000237B614FF0FF3219
:102BF000BB6902FA03F3DA43BB681A407B699A4067
:102C00004FF0FF317B6901FA03F3D9437B680B4036
:102C1000134318462437BD4680BC704780B582B048
:102C200000AF78607B68013BB3F1807F01D3012363
:102C30000FE00A4A7B68013B53600F214FF0FF30E1
:102C4000FFF790FF054B00229A60044B07221A60A1
:102C5000002318460837BD4680BD00BF10E000E0E5
:102C600080B582B000AF78607868FFF72DFF00BFB5
:102C70000837BD4680BD80B586B000AF0346B96059
:102C80007A60FB7300237B61FFF742FF78617A680B
:102C9000B9687869FFF790FF024697F90F3011463F
:102CA0001846FFF75FFF00BF1837BD4680BD80B5EF
:102CB00082B000AF0346FB7197F907301846FFF763
:102CC00035FF00BF0837BD4680BD80B582B000AF7C
:102CD00078607868FFF7A2FF034618460837BD46BC
:102CE00080BD000080B48BB000AF786039600023F5
:102CF0007B6200233B6261E101227B6A02FA03F3FB
:102D0000FB613B681B68FA691340BB61BA69FB69E8
:102D10009A4240F050813B685B68974A93425ED08C
:102D2000954A934275D8954A934258D0934A934214
:102D30006FD8934A934252D0914A934269D8914AAC
:102D400093424CD08F4A934263D88F4A934246D0E5
:102D50008D4A93425DD8122B2AD8122B59D801A242
:102D600052F823F0DF2D0008B92D0008CB2D000804
:102D70000D2E0008132E0008132E0008132E000835
:102D8000132E0008132E0008132E0008132E00081F
:102D9000132E0008132E0008132E0008132E00080F
:102DA000132E0008132E0008C12D0008D52D000891
:102DB000764A934213D02CE03B68DB683B6229E003
:102DC0003B68DB6804333B6224E03B68DB68083324
:102DD0003B621FE03B68DB680C333B621AE03B68F8
:102DE0009B68002B02D104233B6213E03B689B6885
:102DF000012B05D108233B627B68FA691A6109E05F
:102E000008233B627B68FA695A6103E000233B6256
:102E100000E000BFBB69FF2B01D87B6801E07B6845
:102E200004337B61BB69FF2B02D87B6A9B0002E005
:102E30007B6A083B9B003B617B691A680F213B69F9
:102E400001FA03F3DB431A40396A3B6901FA03F3E1
:102E50001A437B691A603B685B6803F08053002B60
:102E600000F0A9804A4B9B69494A43F001039361F2
:102E7000474B9B6903F00103BB60BB68454A7B6A13
:102E80009B08023352F82330FB607B6A03F0030394
:102E90009B000F2202FA03F3DB43FA681340FB6046
:102EA0007B683D4A93420DD07B683C4A934207D0F1
:102EB0007B683B4A934201D1022304E0032302E0F2
:102EC000012300E000237A6A02F00302920093409B
:102ED000FA681343FB602F497B6A9B080233FA6848
:102EE00041F823203B685B6803F48013002B06D075
:102EF0002C4B9A682B49BB6913438B6006E0294B26
:102F00009A68BB69DB43274913408B603B685B6869
:102F100003F40013002B06D0224BDA682149BB6969
:102F20001343CB6006E01F4BDA68BB69DB431D49E6
:102F30001340CB603B685B6803F40033002B06D082
:102F4000184B5A681749BB6913434B6006E0154B91
:102F50005A68BB69DB43134913404B603B685B68AD
:102F600003F48033002B1FD00E4B1A680D49BB6948
:102F700013430B601FE000BF00003210000031104F
:102F8000000022100000211000001210000011109B
:102F9000001002400000014000080140000C014008
:102FA00000100140000401400B4B1A68BB69DB4371
:102FB000094913400B607B6A01337B623B681A68E6
:102FC0007B6A22FA03F3002B7FF496AE00BF00BFAA
:102FD0002C37BD4680BC70470004014080B485B0EA
:102FE00000AF78600B467B807B689A687B881340D3
:102FF000002B02D00123FB7301E00023FB73FB7B5A
:1030000018461437BD4680BC704780B483B000AF0B
:1030100078600B467B8013467B707B78002B03D057
:103020007A887B681A6103E07B881A047B681A61DE
:1030300000BF0C37BD4680BC704780B485B000AF80
:1030400078600B467B807B68DB68FB607A88FB6876
:1030500013401A04FB68D9437B880B401A437B68F2
:103060001A6100BF1437BD4680BC704780B586B07A
:1030700000AF78607B68002B01D1012372E27B688E
:103080001B6803F00103002B00F08780924B5B6804
:1030900003F00C03042B0CD08F4B5B6803F00C0384
:1030A000082B12D18C4B5B6803F48033B3F5803F5F
:1030B0000BD1894B1B6803F40033002B6CD07B6869
:1030C0005B68002B68D101234CE27B685B68B3F539
:1030D000803F06D1804B1B687F4A43F480331360E6
:1030E0002EE07B685B68002B0CD17B4B1B687A4A17
:1030F00023F480331360784B1B68774A23F48023D2
:1031000013601DE07B685B68B3F5A02F0CD1724B98
:103110001B68714A43F4802313606F4B1B686E4A2F
:1031200043F4803313600BE06B4B1B686A4A23F453
:1031300080331360684B1B68674A23F48023136055
:103140007B685B68002B13D0FFF7B4FC386108E0A4
:10315000FFF7B0FC02463B69D31A642B01D9032365
:1031600000E25D4B1B6803F40033002BF0D014E049
:10317000FFF7A0FC386108E0FFF79CFC02463B69C2
:10318000D31A642B01D90323ECE1534B1B6803F4DE
:103190000033002BF0D100E000BF7B681B6803F018
:1031A0000203002B63D04C4B5B6803F00C03002B35
:1031B0000BD0494B5B6803F00C03082B1CD1464B2A
:1031C0005B6803F48033002B16D1434B1B6803F07C
:1031D0000203002B05D07B681B69012B01D0012362
:1031E000C0E13D4B1B6823F0F8027B685B69DB00A4
:1031F000394913430B603AE07B681B69002B20D0F0
:10320000364B01221A60FFF755FC386108E0FFF7E2
:1032100051FC02463B69D31A022B01D90323A1E1D9
:103220002D4B1B6803F00203002BF0D02A4B1B68C8
:1032300023F0F8027B685B69DB00274913430B60CE
:1032400015E0264B00221A60FFF734FC386108E0D5
:10325000FFF730FC02463B69D31A022B01D9032346
:1032600080E11D4B1B6803F00203002BF0D17B684B
:103270001B6803F00803002B3AD07B689B69002B86
:1032800019D0174B01221A60FFF714FC386108E0CF
:10329000FFF710FC02463B69D31A022B01D9032326
:1032A00060E10D4B5B6A03F00203002BF0D00120BC
:1032B00000F09CFA1CE00A4B00221A60FFF7FAFBB0
:1032C00038610FE0FFF7F6FB02463B69D31A022B89
:1032D00008D9032346E100BF00100240000042422B
:1032E00080044242924B5B6A03F00203002BE9D157
:1032F0007B681B6803F00403002B00F0A68000230A
:10330000FB758B4BDB6903F08053002B0DD1884B91
:10331000DB69874A43F08053D361854BDB6903F057
:103320008053BB60BB680123FB75824B1B6803F4B1
:103330008073002B18D17F4B1B687E4A43F4807347
:103340001360FFF7B7FB386108E0FFF7B3FB0246F5
:103350003B69D31A642B01D9032303E1754B1B6826
:1033600003F48073002BF0D07B68DB68012B06D15F
:103370006F4B1B6A6E4A43F0010313622DE07B68BA
:10338000DB68002B0CD16A4B1B6A694A23F00103EE
:103390001362674B1B6A664A23F0040313621CE046
:1033A0007B68DB68052B0CD1614B1B6A604A43F0DC
:1033B000040313625E4B1B6A5D4A43F00103136210
:1033C0000BE05B4B1B6A5A4A23F001031362584B14
:1033D0001B6A574A23F0040313627B68DB68002BE7
:1033E00015D0FFF767FB38610AE0FFF763FB024681
:1033F0003B69D31A41F28832934201D90323B1E0E9
:103400004B4B1B6A03F00203002BEED014E0FFF7D6
:1034100051FB38610AE0FFF74DFB02463B69D31AC6
:1034200041F28832934201D903239BE0404B1B6A4F
:1034300003F00203002BEED1FB7D012B05D13C4BA9
:10344000DB693B4A23F08053D3617B68DB69002B47
:1034500000F08780364B5B6803F00C03082B61D0CB
:103460007B68DB69022B46D1334B00221A60FFF7E1
:1034700021FB386108E0FFF71DFB02463B69D31AC8
:10348000022B01D903236DE0294B1B6803F0007365
:10349000002BF0D17B681B6AB3F5803F08D1244B29
:1034A0005B6823F400327B689B68214913434B60BF
:1034B0001F4B5B6823F474127B68196A7B685B6A34
:1034C0000B431B4913434B601B4B01221A60FFF750
:1034D000F1FA386108E0FFF7EDFA02463B69D31ACA
:1034E000022B01D903233DE0114B1B6803F000734D
:1034F000002BF0D035E0104B00221A60FFF7DAFA0B
:10350000386108E0FFF7D6FA02463B69D31A022B6E
:1035100001D9032326E0064B1B6803F00073002B40
:10352000F0D11EE07B68DB69012B07D1012319E094
:103530000010024000700040600042420B4B5B688C
:10354000FB60FB6803F480327B681B6A9A4206D1F9
:10355000FB6803F470127B685B6A9A4201D0012316
:1035600000E0002318461837BD4680BD0010024019
:1035700080B584B000AF786039607B68002B01D1E2
:103580000123D0E06A4B1B6803F007033A689A42B4
:1035900010D9674B1B6823F0070265493B6813434A
:1035A0000B60634B1B6803F007033A689A4201D033
:1035B0000123B8E07B681B6803F00203002B20D0D6
:1035C0007B681B6803F00403002B05D0594B5B6834
:1035D000584A43F4E06353607B681B6803F00803B8
:1035E000002B05D0534B5B68524A43F46053536041
:1035F000504B5B6823F0F0027B689B684D49134396
:103600004B607B681B6803F00103002B40D07B6894
:103610005B68012B07D1474B1B6803F40033002B79
:1036200015D101237FE07B685B68022B07D1414BFA
:103630001B6803F00073002B09D1012373E03D4B9D
:103640001B6803F00203002B01D101236BE0394B0F
:103650005B6823F003027B685B68364913434B6069
:10366000FFF728FAF8600AE0FFF724FA0246FB6841
:10367000D31A41F28832934201D9032353E02D4BF0
:103680005B6803F00C027B685B689B009A42EBD19D
:10369000274B1B6803F007033A689A4210D2244B69
:1036A0001B6823F0070222493B6813430B60204B41
:1036B0001B6803F007033A689A4201D0012332E005
:1036C0007B681B6803F00403002B08D0194B5B6870
:1036D00023F4E0627B68DB68164913434B607B6828
:1036E0001B6803F00803002B09D0124B5B6823F41E
:1036F00060527B681B69DB000E4913434B6000F08E
:1037000021F802460B4B5B681B0903F00F030A49C3
:10371000CB5C22FA03F3094A1360094B1B68184675
:10372000FFF786F9002318461037BD4680BD00BF5D
:1037300000200240001002404841000868000020BC
:103740006C00002080B487B000AF0023FB60002332
:10375000BB6000237B6100237B6000233B611E4B29
:103760005B68FB60FB6803F00C03042B02D0082BA2
:1037700003D027E0194B3B6127E0FB689B0C03F06B
:103780000F03174AD35C7B60FB6803F48033002B84
:1037900010D0114B5B685B0C03F00103114AD35C42
:1037A000BB607B680D4A03FB02F2BB68B2FBF3F31C
:1037B0007B6104E07B680C4A02FB03F37B617B695D
:1037C0003B6102E0054B3B6100BF3B6918461C377B
:1037D000BD4680BC704700BF0010024000127A0056
:1037E000584100086841000800093D0080B485B0D8
:1037F00000AF78600A4B1B680A4AA2FB03235B0AEE
:103800007A6802FB03F3FB6000BFFB685A1EFA6094
:10381000002BF9D100BF00BF1437BD4680BC7047F4
:1038200068000020D34D621080B582B000AF786090
:103830007B68002B01D1012341E07B6893F83D3088
:10384000DBB2002B06D17B68002283F83C2078682D
:10385000FFF752F87B68022283F83D207B681A68E4
:103860007B6804331946104600F056FA7B68012243
:1038700083F846207B68012283F83E207B68012282
:1038800083F83F207B68012283F840207B68012277
:1038900083F841207B68012283F842207B68012263
:1038A00083F843207B68012283F844207B6801224F
:1038B00083F845207B68012283F83D2000231846C9
:1038C0000837BD4680BD000080B485B000AF786089
:1038D0007B6893F83D30DBB2012B01D0012335E04A
:1038E0007B68022283F83D207B681B68DA687B686E
:1038F0001B6842F00102DA607B681B68164A93423B
:1039000009D07B681B68B3F1804F04D07B681B68CB
:10391000124A934211D17B681B689B6803F007032E
:10392000FB60FB68062B10D07B681B681A687B68FD
:103930001B6842F001021A6007E07B681B681A6886
:103940007B681B6842F001021A6000231846143796
:10395000BD4680BC704700BF002C01400004004001
:1039600080B584B000AF78607B681B68DB68FB6063
:103970007B681B681B69BB60BB6803F00203002BFC
:1039800020D0FB6803F00203002B1BD07B681B6870
:103990006FF002021A617B6801221A777B681B684C
:1039A0009B6903F00303002B03D0786800F098F9BB
:1039B00005E0786800F08BF9786800F09AF97B6888
:1039C00000221A77BB6803F00403002B20D0FB68A9
:1039D00003F00403002B1BD07B681B686FF004020C
:1039E0001A617B6802221A777B681B689B6903F463
:1039F0004073002B03D0786800F072F905E0786816
:103A000000F065F9786800F074F97B6800221A7795
:103A1000BB6803F00803002B20D0FB6803F0080309
:103A2000002B1BD07B681B686FF008021A617B6853
:103A300004221A777B681B68DB6903F00303002B01
:103A400003D0786800F04CF905E0786800F03FF9A1
:103A5000786800F04EF97B6800221A77BB6803F0A3
:103A60001003002B20D0FB6803F01003002B1BD0A9
:103A70007B681B686FF010021A617B6808221A7756
:103A80007B681B68DB6903F44073002B03D0786804
:103A900000F026F905E0786800F019F9786800F080
:103AA00028F97B6800221A77BB6803F00103002B1A
:103AB0000CD0FB6803F00103002B07D07B681B6868
:103AC0006FF001021A617868FEF7C4FBBB6803F06F
:103AD0008003002B0CD0FB6803F08003002B07D081
:103AE0007B681B686FF080021A61786800F06FFADB
:103AF000BB6803F04003002B0CD0FB6803F04003CD
:103B0000002B07D07B681B686FF040021A61786851
:103B100000F0F8F8BB6803F02003002B0CD0FB6822
:103B200003F02003002B07D07B681B686FF0200296
:103B30001A61786800F042FA00BF1037BD4680BDB8
:103B400080B584B000AF786039600023FB737B6878
:103B500093F83C30012B01D10223B4E07B680122B1
:103B600083F83C207B68022283F83D207B681B6839
:103B70009B68BB60BB6823F07703BB60BB6823F422
:103B80007F43BB607B681B68BA689A603B681B68B0
:103B9000B3F5005F3ED0B3F5005F00F28780B3F568
:103BA000805F00F08680B3F5805F7FD8702B1AD0DD
:103BB000702B7BD8602B50D0602B77D8502B3CD00B
:103BC000502B73D8402B58D0402B6FD8302B64D05B
:103BD000302B6BD8202B60D0202B67D8002B5CD0EB
:103BE000102B5AD062E07B6818683B6899683B6884
:103BF0005A683B68DB6800F06AF97B681B689B6861
:103C0000BB60BB6843F07703BB607B681B68BA6826
:103C10009A604FE07B6818683B6899683B685A680F
:103C20003B68DB6800F053F97B681B689A687B6827
:103C30001B6842F480429A603CE07B6818683B68ED
:103C400059683B68DB681A4600F0CAF87B681B6855
:103C50005021184600F021F92CE07B6818683B6879
:103C600059683B68DB681A4600F0E8F87B681B6817
:103C70006021184600F011F91CE07B6818683B6869
:103C800059683B68DB681A4600F0AAF87B681B6835
:103C90004021184600F001F90CE07B681A683B6887
:103CA0001B681946104600F0F8F803E00123FB7387
:103CB00000E000BF7B68012283F83D207B68002282
:103CC00083F83C20FB7B18461037BD4680BD80B48E
:103CD00083B000AF786000BF0C37BD4680BC704732
:103CE00080B483B000AF786000BF0C37BD4680BCA5
:103CF000704780B483B000AF786000BF0C37BD461A
:103D000080BC704780B483B000AF786000BF0C37D0
:103D1000BD4680BC7047000080B485B000AF7860BD
:103D200039607B681B68FB607B682B4A934207D035
:103D30007B68B3F1804F03D07B68284A934208D157
:103D4000FB6823F07003FB603B685B68FA68134311
:103D5000FB607B68204A934207D07B68B3F1804FB9
:103D600003D07B681D4A934208D1FB6823F440735B
:103D7000FB603B68DB68FA681343FB60FB6823F079
:103D800080023B685B691343FB607B68FA681A60DA
:103D90003B689A687B68DA623B681A687B689A625B
:103DA0007B680D4A934203D13B681A697B681A63AA
:103DB0007B6801225A617B681B6903F00103002BB9
:103DC00005D07B681B6923F001027B681A6100BF84
:103DD0001437BD4680BC7047002C014000040040F1
:103DE00080B487B000AFF860B9607A60FB681B6A86
:103DF0007B61FB681B6A23F00102FB681A62FB68A7
:103E00009B693B613B6923F0F0033B617B681B01CD
:103E10003A6913433B617B6923F00A037B617A694A
:103E2000BB6813437B61FB683A699A61FB687A69F6
:103E30001A6200BF1C37BD4680BC704780B487B093
:103E400000AFF860B9607A60FB681B6A7B61FB6851
:103E50001B6A23F01002FB681A62FB689B693B61D6
:103E60003B6923F470433B617B681B033A6913434E
:103E70003B617B6923F0A0037B61BB681B017A690E
:103E800013437B61FB683A699A61FB687A691A623D
:103E900000BF1C37BD4680BC704780B485B000AF02
:103EA000786039607B689B68FB60FB6823F0700377
:103EB000FB603A68FB68134343F00703FB607B68D1
:103EC000FA689A6000BF1437BD4680BC704780B462
:103ED00087B000AFF860B9607A603B60FB689B68B0
:103EE0007B617B6923F47F437B613B681A027B68BB
:103EF0001A43BB6813437A6913437B61FB687A6991
:103F00009A6000BF1C37BD4680BC704780B485B046
:103F100000AF786039607B6893F83C30012B01D1A9
:103F2000022341E07B68012283F83C207B68022267
:103F300083F83D207B681B685B68FB607B681B68BF
:103F40009B68BB60FB6823F07003FB603B681B68E9
:103F5000FA681343FB607B681B68FA685A607B68E9
:103F60001B68144A934209D07B681B68B3F1804FE9
:103F700004D07B681B68104A93420CD1BB6823F0C5
:103F80008003BB603B685B68BA681343BB607B68B7
:103F90001B68BA689A607B68012283F83D207B68C1
:103FA000002283F83C20002318461437BD4680BC0D
:103FB000704700BF002C01400004004080B483B073
:103FC00000AF786000BF0C37BD4680BC704780B43E
:103FD00083B000AF786000BF0C37BD4680BC70472F
:103FE00003460244934200D1704703F8011BF9E7EE
:103FF00070B500260C4D0D4C641BA410A64209D1CF
:1040000000F096F800260A4D0A4C641BA410A64244
:1040100005D170BD55F8043B98470136EEE755F8D9
:10402000043B98470136F2E76C4100086C410008F8
:104030006C410008704100082DE9F041C1F30A57B6
:10404000A7F2FF36132E02460B460C460546804665
:104050002FDC002E11DA32A3D3E90023FCF77EF81F
:1040600000220023FCF7C0FC20B1002C51DB2543CB
:1040700053D12C4623462A4624E02B4F374101EAF0
:10408000070C5CEA000C1DD025A3D3E90023FCF744
:1040900065F800220023FCF7A7FC0028EAD0002CDA
:1040A000C2BF4FF480133341E418002524EA07040B
:1040B000E0E7332E0ADDB6F5806F03D1FCF74EF84A
:1040C00002460B4610461946BDE8F0814FF0FF3C12
:1040D000A7F213472CFA07F73842F3D010A3D3E91D
:1040E0000023FCF73BF800220023FCF77DFC0028AE
:1040F000C0D0002C0ADD142E01D1013406E00123CA
:10410000C6F13406B3401D44A845F6D825EA070594
:10411000B0E700254FF00044ACE70025034CA9E7C9
:104120009C7500883CE4377EFFFF0F000000F03FE5
:10413000F8B500BFF8BC08BC9E467047F8B500BF94
:08414000F8BC08BC9E46704764
:10414800000000000000000001020304060708093F
:1041580002030405060708090A0B0C0D0E0F1010C0
:044168000102000050
:04416C003501000811
:044170001101000831
:104174000100000001000000010000000100000037
:104184000100000001000000F40100000100000033
:10419400010000000100000001000000F401000023
:1041A4000100000001000000010000000100000007
:1041B400F401000001000000010000000100000003
:1041C40004000000050000000300000002000000DD
:1041D4000A0000000A00000000127A00100000002B
:0441E40001000000D6
:04000005080029B90D
:00000001FF
